:020000040800F2
:100000000000032031050008810500088105000873
:100010008105000881050008810500080000000036
:100020000000000000000000000000008105000842
:100030008105000800000000810500088105000816
:100040008105000881050008810500088105000878
:100050008105000881050008C10400088105000829
:100060008105000881050008810500088105000858
:100070008105000881050008810500088105000848
:100080008105000881050008810500088105000838
:100090008105000881050008810500088105000828
:1000A0008105000881050008810500088105000818
:1000B0008105000881050008810500088105000808
:1000C00081050008810500088105000881050008F8
:1000D00081050008810500088105000881050008E8
:1000E00081050008810500088105000881050008D8
:1000F00081050008810500088105000881050008C8
:1001000081050008810500088105000881050008B7
:1001100081050008810500088105000881050008A7
:100120008105000881050008810500088105000897
:100130008105000881050008810500088105000887
:100140008105000881050008810500088105000877
:100150008105000881050008810500088105000867
:100160008105000881050008810500088105000857
:1001700081050008810500088105000800000000D5
:100180008105000881050008810500088105000837
:100190008105000881050008810500088105000827
:0C01A000810500088105000881050008A9
:1001AC00044B05481B1A062B02D9044B03B1184704
:1001BC00704700BF2B040020280400200000000022
:1001CC0005490648091A891001EBD171491002D072
:1001DC00034B03B118477047280400202804002063
:1001EC000000000010B5064C237843B9FFF7D8FF88
:1001FC00044B13B10448AFF300800123237010BDEE
:10020C0028040020000000008405000808B5084BF5
:10021C001BB108480849AFF300800848036813B9BC
:10022C00BDE80840CCE7064B002BF9D09847F7E720
:10023C0000000000840500082C0400202804002085
:10024C0000000000014600200246034600F03EB8C4
:10025C0038B5084B084DED1AAC1018BFED1805D089
:10026C00013C55F8043D9847002CF9D1BDE83840C5
:10027C0000F088B9AC050008B005000870B50F4E49
:10028C000F4D761BB61018BF002405D0013455F85D
:10029C00043B9847A642F9D10A4E0B4D761B00F051
:1002AC006BF9B61018BF002406D0013455F8043B86
:1002BC009847A642F9D170BD70BD00BFA4050008D7
:1002CC00A4050008AC050008A40500082DE9F047BA
:1002DC00254C2568D5F848410646884692469946ED
:1002EC00CCB360681F2818DC431C7EB104EB80057E
:1002FC000121C5F888A0D4F8887101FA00F21743DF
:10030C00022EC4F88871C5F808911ED002306360C3
:10031C0044F820800020BDE8F087144B03B34FF461
:10032C00C870AFF300800446D0B1D5F8483100272F
:10033C0080E88800C5F8484138460123C4F8887124
:10034C00C4F88C71002EE1D0D0E7D4F88C110A439C
:10035C00C4F88C21DAE705F5A674C5F84841C0E766
:10036C004FF0FF30BDE8F087A0050008000000004A
:10037C00024B13B10248FFF765BF70470000000045
:10038C005D0200080D4A136B43F0400313630C4BE2
:10039C001A6842F080521A605A685A60DA68DA6059
:1003AC009A689A601A6842F080621A605A685A60B9
:1003BC00DA68DA609A689A60704700BF00380240C9
:1003CC000018024010300123014A834093617047AA
:1003DC0000180240044A0123516983400B4201D0AA
:1003EC00FFF7F0BF9361704700180240EFF31480E1
:1003FC0000F0010080F001007047EFF3148323F04C
:10040C00010383F314887047EFF3148343F0010363
:10041C0083F3148870470000114B1A6B42F00102F1
:10042C001A63104A116821F003011160D16821F0A0
:10043C000301D1605A6C42F480425A64A3F57C43A8
:10044C001A6842F001021A60DA6842F00102DA60BE
:10045C00054B002283F8062340221A60704700BF28
:10046C00003802400000024000E100E008B5FFF750
:10047C0089FFFFF7D1FFFFF7B9FF28B1012383F301
:10048C001088002383F31088FFF7BEFF012585F346
:10049C001088002484F31088FFF7AFFF85F31088D1
:1004AC0084F31088012383F31088002383F31088CE
:1004BC00F8E7000008B5074B5A69D20742BF5A69E2
:1004CC0002F001025A610E20FFF784FFBDE80840DC
:1004DC00FFF793BF003C01400F49D1F8883043F43B
:1004EC007003C1F888300D4B1A68002042F00102ED
:1004FC001A6098601A6822F0847222F480321A60B2
:10050C00074A5A601A6822F480221A60D8604FF0A9
:10051C0000638B60704700BF00ED00E000380240C4
:10052C0010300024DFF834D0002103E00C4B5B5872
:10053C00435004310B480C4B42189A42F6D30B4AE9
:10054C0002E0002342F8043B094B9A42F9D3FFF72F
:10055C00C3FFFFF793FEFFF789FF704700000320EE
:10056C00B00500080000002028040020280400200A
:10057C0044040020FEE70000F8B500BFF8BC08BC3E
:10058C009E467047F8B500BFF8BC08BC9E46704745
:08059C004300000000000020F4
:0805A4007D03000819020008A4
:0405AC00F101000851
:1005B00000000000EC02002054030020BC030020D7
:1005C000000000000000000000000000000000002B
:1005D000000000000000000000000000000000001B
:1005E000000000009C050008000000000000000062
:1005F00000000000000000000000000000000000FB
:1006000000000000000000000000000000000000EA
:1006100000000000000000000000000000000000DA
:1006200000000000000000000000000000000000CA
:1006300000000000000000000000000000000000BA
:1006400000000000000000000000000000000000AA
:100650000000000000000000010000000000000099
:100660000E33CDAB34126DE6ECDE05000B0000005E
:10067000000000000000000000000000000000007A
:10068000000000000000000000000000000000006A
:10069000000000000000000000000000000000005A
:1006A000000000000000000000000000000000004A
:0400000508000531B9
:00000001FF
