:020000040800F2
:1000000000000320A9040008F9040008F90400080E
:10001000F9040008F9040008F904000800000000D1
:10002000000000000000000000000000F9040008CB
:10003000F904000800000000F9040008F9040008B1
:10004000F9040008F9040008F9040008F90400089C
:10005000F9040008F9040008F9040008F90400088C
:10006000F9040008F9040008F9040008F90400087C
:10007000F9040008F9040008F9040008F90400086C
:10008000F9040008F9040008F9040008F90400085C
:10009000F9040008F9040008F9040008F90400084C
:1000A000F9040008F9040008F9040008F90400083C
:1000B000F9040008F9040008F9040008F90400082C
:1000C000F9040008F9040008F9040008F90400081C
:1000D000F9040008F9040008F9040008F90400080C
:1000E000F9040008F9040008F9040008F9040008FC
:1000F000F9040008F9040008F9040008F9040008EC
:10010000F9040008F9040008F9040008F9040008DB
:10011000F9040008F9040008F9040008F9040008CB
:10012000F9040008F9040008F9040008F9040008BB
:10013000F9040008F9040008F9040008F9040008AB
:10014000F9040008F9040008F9040008F90400089B
:10015000F9040008F9040008F9040008F90400088B
:10016000F9040008F9040008F9040008F90400087B
:10017000F9040008F9040008F90400080000000070
:10018000F9040008F9040008F9040008F90400085B
:10019000F9040008F9040008F9040008F90400084B
:0C01A000F9040008F9040008F904000844
:1001AC00044B05481B1A062B02D9044B03B1184704
:1001BC00704700BF2B040020280400200000000022
:1001CC0005490648091A891001EBD171491002D072
:1001DC00034B03B118477047280400202804002063
:1001EC000000000010B5064C237843B9FFF7D8FF88
:1001FC00044B13B10448AFF300800123237010BDEE
:10020C002804002000000000FC04000808B5084B7E
:10021C001BB108480849AFF300800848036813B9BC
:10022C00BDE80840CCE7064B002BF9D09847F7E720
:10023C0000000000FC0400082C040020280400200E
:10024C0000000000014600200246034600F03EB8C4
:10025C0038B5084B084DED1AAC1018BFED1805D089
:10026C00013C55F8043D9847002CF9D1BDE83840C5
:10027C0000F044B9240500082805000870B50F4E9D
:10028C000F4D761BB61018BF002405D0013455F85D
:10029C00043B9847A642F9D10A4E0B4D761B00F051
:1002AC0027F9B61018BF002406D0013455F8043BCA
:1002BC009847A642F9D170BD70BD00BF1C0500085F
:1002CC001C050008240500081C0500082DE9F04752
:1002DC00254C2568D5F848410646884692469946ED
:1002EC00CCB360681F2818DC431C7EB104EB80057E
:1002FC000121C5F888A0D4F8887101FA00F21743DF
:10030C00022EC4F88871C5F808911ED002306360C3
:10031C0044F820800020BDE8F087144B03B34FF461
:10032C00C870AFF300800446D0B1D5F8483100272F
:10033C0080E88800C5F8484138460123C4F8887124
:10034C00C4F88C71002EE1D0D0E7D4F88C110A439C
:10035C00C4F88C21DAE705F5A674C5F84841C0E766
:10036C004FF0FF30BDE8F0871805000800000000D2
:10037C00024B13B10248FFF765BF70470000000045
:10038C005D02000880B400AF0B4B1B6803F4804384
:10039C00002B06D0094A094B1B6823F480431360D9
:1003AC0005E0064A054B1B6843F480431360BD46C9
:1003BC005DF8047B704700BF10180240141802400F
:1003CC0080B582B000AF00237B60154A144B1B68CC
:1003DC0043F040031360134A124B1B6843F08053E5
:1003EC001360114A104B1B6843F480431360FFF7F2
:1003FC00C9FF00237B6002E07B6801337B607B6874
:10040C000A4A9342F8D9FFF7BDFF00237B6002E054
:10041C007B6801337B607B68044A9342F8D9E6E73A
:10042C003038024000180240141802401FA1070087
:10043C0080B400AF164A164BD3F8883043F47003DF
:10044C00C2F88830134A134B1B6843F00103136046
:10045C00104B00229A600F4A0E4B1B6823F08473DA
:10046C0023F4803313600B4B0B4A5A60094A094B37
:10047C001B6823F480231360064B0022DA60044BC4
:10048C004FF000629A60BD465DF8047B704700BF78
:10049C0000ED00E00038024010300024DFF834D0CA
:1004AC00002103E00C4B5B58435004310B480C4BC0
:1004BC0042189A42F6D30B4A02E0002342F8043B5E
:1004CC00094B9A42F9D3FFF7B3FFFFF7D7FEFFF7BB
:1004DC0077FF70470000032028050008000000206B
:1004EC00280400202804002044040020FEE700001B
:1004FC00F8B500BFF8BC08BC9E467047F8B500BF05
:08050C00F8BC08BC9E467047D4
:0805140043000000000000207C
:08051C007D030008190200082C
:04052400F1010008D9
:1005280000000000EC02002054030020BC0300205F
:1005380000000000000000000000000000000000B3
:1005480000000000000000000000000000000000A3
:100558000000000014050008000000000000000072
:100568000000000000000000000000000000000083
:100578000000000000000000000000000000000073
:100588000000000000000000000000000000000063
:100598000000000000000000000000000000000053
:1005A8000000000000000000000000000000000043
:1005B8000000000000000000000000000000000033
:1005C8000000000000000000010000000000000022
:1005D8000E33CDAB34126DE6ECDE05000B000000E7
:1005E8000000000000000000000000000000000003
:1005F80000000000000000000000000000000000F3
:1006080000000000000000000000000000000000E2
:1006180000000000000000000000000000000000D2
:04000005080004A942
:00000001FF
