:020000040800F2
:1000000000000320D5050008250600082506000885
:100010002506000825060008250600080000000047
:10002000000000000000000000000000250600089D
:1000300025060008000000005D05000825060008F0
:1000400025060008250600082506000825060008E4
:1000500025060008250600082905000825060008D1
:1000600025060008250600082506000825060008C4
:1000700025060008250600082506000825060008B4
:1000800025060008250600082506000825060008A4
:100090002506000825060008250600082506000894
:1000A0002506000825060008250600082506000884
:1000B0002506000825060008250600082506000874
:1000C0002506000825060008250600082506000864
:1000D0002506000825060008250600082506000854
:1000E0002506000825060008250600082506000844
:1000F0002506000825060008250600082506000834
:100100002506000825060008250600082506000823
:100110002506000825060008250600082506000813
:100120002506000825060008250600082506000803
:1001300025060008250600082506000825060008F3
:1001400025060008250600082506000825060008E3
:1001500025060008250600082506000825060008D3
:1001600025060008250600082506000825060008C3
:1001700025060008250600082506000800000000E6
:1001800025060008250600082506000825060008A3
:100190002506000825060008250600082506000893
:0C01A000250600082506000825060008BA
:1001AC00044B05481B1A062B02D9044B03B1184704
:1001BC00704700BF2B040020280400200000000022
:1001CC0005490648091A891001EBD171491002D072
:1001DC00034B03B118477047280400202804002063
:1001EC000000000010B5064C237843B9FFF7D8FF88
:1001FC00044B13B10448AFF300800123237010BDEE
:10020C0028040020000000002806000808B5084B50
:10021C001BB108480849AFF300800848036813B9BC
:10022C00BDE80840CCE7064B002BF9D09847F7E720
:10023C0000000000280600082C04002028040020E0
:10024C0000000000014600200246034600F03EB8C4
:10025C0038B5084B084DED1AAC1018BFED1805D089
:10026C00013C55F8043D9847002CF9D1BDE83840C5
:10027C0000F0DAB9500600085406000870B50F4EAD
:10028C000F4D761BB61018BF002405D0013455F85D
:10029C00043B9847A642F9D10A4E0B4D761B00F051
:1002AC00BDF9B61018BF002406D0013455F8043B34
:1002BC009847A642F9D170BD70BD00BF4806000832
:1002CC004806000850060008480600082DE9F047CB
:1002DC00254C2568D5F848410646884692469946ED
:1002EC00CCB360681F2818DC431C7EB104EB80057E
:1002FC000121C5F888A0D4F8887101FA00F21743DF
:10030C00022EC4F88871C5F808911ED002306360C3
:10031C0044F820800020BDE8F087144B03B34FF461
:10032C00C870AFF300800446D0B1D5F8483100272F
:10033C0080E88800C5F8484138460123C4F8887124
:10034C00C4F88C71002EE1D0D0E7D4F88C110A439C
:10035C00C4F88C21DAE705F5A674C5F84841C0E766
:10036C004FF0FF30BDE8F0874406000800000000A5
:10037C00024B13B10248FFF765BF70470000000045
:10038C005D02000880B400AF164A164B1B6B43F09D
:10039C0040031363144A144B1B6843F080531360DF
:1003AC00114A114B5B6853600F4A0F4BDB68D360EB
:1003BC000D4A0D4B9B6893600B4A0B4B1B6843F02B
:1003CC0080631360084A084B5B685360064A064B0F
:1003DC00DB68D360044A044B9B689360BD465DF8B0
:1003EC00047B7047003802400018024080B483B090
:1003FC0000AF0346FB71054AFB79012101FA03F3B7
:10040C0093610C37BD465DF8047B704700180240C1
:10041C0080B483B000AF0346FB71064AFB791033FE
:10042C00012101FA03F393610C37BD465DF8047B9F
:10043C00704700BF0018024080B582B000AF034681
:10044C00FB710A4B5B69FA79012101FA02F2134044
:10045C00002B04D0FB791846FFF7DAFF03E0FB7999
:10046C001846FFF7C3FF0837BD4680BD0018024091
:10047C0080B483B000AF0346FB71084997F907308D
:10048C005B09FA7902F01F02012000FA02F241F82E
:10049C0023200C37BD465DF8047B704700E100E07B
:1004AC0080B500AF154A154B1B6B43F0010313636A
:1004BC00134A134B1B6823F003031360104A104BB1
:1004CC00DB6823F00303D3600C4A0C4B5B6C43F4E6
:1004DC00804353640B4A0B4BDB6843F00103D3603E
:1004EC00084A084B1B6843F001031360064B0022BB
:1004FC0083F806230620FFF7BBFF80BD00380240BF
:10050C0000000240003C014000E100E080B500AF7B
:10051C00FFF738FFFFF7C4FFFEE700BF80B500AF61
:10052C00094B5B6903F00103002B02D0064B01223F
:10053C005A610E20FFF780FF044A044B5B6843F0BE
:10054C008053536080BD00BF003C014000ED00E0D3
:10055C0080B500AF0D20FFF76FFF80BD80B400AFFA
:10056C00164A164BD3F8883043F47003C2F888301F
:10057C00134A134B1B6843F001031360104B00220A
:10058C009A600F4A0E4B1B6823F0847323F480335C
:10059C0013600B4B0B4A5A60094A094B1B6823F436
:1005AC0080231360064B0022DA60044B4FF000628C
:1005BC009A60BD465DF8047B704700BF00ED00E01B
:1005CC000038024010300024DFF834D0002103E062
:1005DC000C4B5B58435004310B480C4B42189A425D
:1005EC00F6D30B4A02E0002342F8043B094B9A4233
:1005FC00F9D3FFF7B3FFFFF741FEFFF787FF704713
:10060C0000000320540600080000002028040020ED
:10061C002804002044040020FEE70000F8B500BFC9
:10062C00F8BC08BC9E467047F8B500BFF8BC08BCC7
:04063C009E4670471F
:0806400043000000000000204F
:080648007D03000819020008FF
:04065000F1010008AC
:1006540000000000EC02002054030020BC03002032
:100664000000000000000000000000000000000086
:100674000000000000000000000000000000000076
:100684000000000040060008000000000000000018
:100694000000000000000000000000000000000056
:1006A4000000000000000000000000000000000046
:1006B4000000000000000000000000000000000036
:1006C4000000000000000000000000000000000026
:1006D4000000000000000000000000000000000016
:1006E4000000000000000000000000000000000006
:1006F40000000000000000000100000000000000F5
:100704000E33CDAB34126DE6ECDE05000B000000B9
:1007140000000000000000000000000000000000D5
:1007240000000000000000000000000000000000C5
:1007340000000000000000000000000000000000B5
:1007440000000000000000000000000000000000A5
:04000005080005D515
:00000001FF
