:020000040800F2
:1000000000000320390E0008910300089303000844
:1000100095030008970300089903000800000000FA
:100020000000000000000000000000009B0300082A
:100030009D030008000000009F030008A1030008C2
:10004000890E0008890E0008890E0008890E000834
:10005000890E0008890E0008A5030008890E000813
:10006000890E0008890E0008890E0008890E000814
:10007000890E0008890E0008890E0008890E000804
:10008000890E0008890E0008890E0008890E0008F4
:10009000890E0008890E0008890E0008890E0008E4
:1000A000890E0008890E0008890E0008890E0008D4
:1000B000890E0008890E0008890E0008890E0008C4
:1000C000890E0008890E0008890E0008890E0008B4
:1000D000890E0008890E0008890E0008890E0008A4
:1000E000890E0008890E0008890E0008890E000894
:1000F000890E0008890E0008890E0008890E000884
:10010000890E0008890E0008890E0008890E000873
:10011000890E0008890E0008890E0008890E000863
:10012000890E0008890E0008890E0008890E000853
:10013000890E0008890E0008890E0008890E000843
:10014000890E0008890E0008890E0008890E000833
:10015000890E0008890E0008890E0008890E000823
:10016000890E0008890E0008890E0008890E000813
:10017000890E0008890E0008890E000800000000A2
:10018000890E0008890E0008890E0008890E0008F3
:10019000890E0008890E0008890E0008890E0008E3
:0C01A000890E0008890E0008890E000876
:1001AC00044B05481B1A062B02D9044B03B1184704
:1001BC00704700BF3704002034040020000000000A
:1001CC0005490648091A891001EBD171491002D072
:1001DC00034B03B11847704734040020340400204B
:1001EC000000000010B5064C237843B9FFF7D8FF88
:1001FC00044B13B10448AFF300800123237010BDEE
:10020C0034040020000000008C0E000808B5084BD8
:10021C001BB108480849AFF300800848036813B9BC
:10022C00BDE80840CCE7064B002BF9D09847F7E720
:10023C00000000008C0E000838040020340400205C
:10024C0000000000014600200246034600F03EB8C4
:10025C0038B5084B084DED1AAC1018BFED1805D089
:10026C00013C55F8043D9847002CF9D1BDE83840C5
:10027C0000F00CBEC80E0008CC0E000870B50F4E76
:10028C000F4D761BB61018BF002405D0013455F85D
:10029C00043B9847A642F9D10A4E0B4D761B00F051
:1002AC00EFFDB61018BF002406D0013455F8043BFE
:1002BC009847A642F9D170BD70BD00BFC00E0008B2
:1002CC00C00E0008C80E0008C00E00082DE9F0474B
:1002DC00254C2568D5F848410646884692469946ED
:1002EC00CCB360681F2818DC431C7EB104EB80057E
:1002FC000121C5F888A0D4F8887101FA00F21743DF
:10030C00022EC4F88871C5F808911ED002306360C3
:10031C0044F820800020BDE8F087144B03B34FF461
:10032C00C870AFF300800446D0B1D5F8483100272F
:10033C0080E88800C5F8484138460123C4F8887124
:10034C00C4F88C71002EE1D0D0E7D4F88C110A439C
:10035C00C4F88C21DAE705F5A674C5F84841C0E766
:10036C004FF0FF30BDE8F087A80E00080000000039
:10037C00024B13B10248FFF765BF70470000000045
:10038C005D0200087047FEE7FEE7FEE7FEE77047F8
:10039C007047704700F05AB8012000F01DBC0000F7
:1003AC000F49D1F8883043F47003C1F888300D4BF5
:1003BC001A68002042F001021A6098601A6822F054
:1003CC00847222F480321A60074A5A601A6822F446
:1003DC0080221A60D8604FF000638B60704700BFBA
:1003EC0000ED00E00038024010300024704700009F
:1003FC0010B5084B044618684FF47A73B0FBF3F051
:10040C0000F0DCFA4FF0FF302146002200F09AFA9F
:10041C00002010BD2804002008B50B4B1A6842F4CC
:10042C0000721A601A6842F480621A601A6842F408
:10043C0080721A60032000F073FA0F20FFF7D8FFC8
:10044C00FFF7D4FF002008BD003C0240024A1368AD
:10045C0001331360704700BF50040020014B186833
:10046C00704700BF500400200368F7B5D907044655
:10047C0003D423689A0737D484E0A54B9A6802F01A
:10048C000C02042A07D09A6802F00C02082A0BD13D
:10049C005B685B0208D59E4B1B689F03E9D56368BC
:1004AC00002BE6D1012030E19A4B22791A70636857
:1004BC006BB1FFF7D3FF0546954B1B689E03D8D451
:1004CC00FFF7CCFF401B6428F6D903201DE1FFF792
:1004DC00C5FF05468E4B1B689803CAD5FFF7BEFFB8
:1004EC00401B6428F6D9F0E7894B9A6812F00C0F80
:1004FC0007D09A6802F00C02082A16D15B685902E0
:10050C0013D4834B1A68920702D5E268012AC9D129
:10051C001968F82090FAA0F02269B0FA80F021F066
:10052C00F80182400A431A602CE0E2687A4BDAB197
:10053C0001221A60FFF792FF0546754803689F0772
:10054C0005D4FFF78BFF401B0228F6D9BDE70268E4
:10055C00F82191FAA1F12369B1FA81F122F0F802A4
:10056C008B40134303600DE01A60FFF777FF0546DD
:10057C00674B1B689E0705D5FFF770FF401B0228D1
:10058C00F6D9A2E72368180703D42368590744D582
:10059C001FE06269614B72B101221A60FFF75EFFC6
:1005AC0005465B4B5B6F9A07EFD4FFF757FF401B79
:1005BC000228F6D989E71A60FFF750FF0546544B1D
:1005CC005B6F9B07E1D5FFF749FF401B0228F6D96B
:1005DC007BE7002301934E4B1A6C42F080521A6455
:1005EC001B6C4F4A03F080530193019B136843F437
:1005FC0080731360FFF732FF0546494B1B68DF051C
:10060C000ED5484B227A1A70A368BBB1FFF726FFB0
:10061C0005463F4B1B6F9E0708D5A269EAB959E006
:10062C00FFF71CFF401B0228E7D94EE7FFF716FF28
:10063C0041F28833401B9842EBD946E7FFF70EFF97
:10064C000546334B1B6F9807E7D5FFF707FF41F2C1
:10065C008833401B9842F4D937E72D4B9B6803F045
:10066C000C03082B3FF41EAF2F4D0023022A2B60E6
:10067C003ED1FFF7F3FE06462548036899012BD4BB
:10068C0047F6C07797FAA7F74FF44036B7FA87F7D3
:10069C0096FAA6F64FF07061B6FA86F691FAA1F1C9
:1006AC00E369226AB1FA81F11A43636ABB401A43C7
:1006BC00A36A5B08013BB3401343E26A8A401343CD
:1006CC00436001232B60FFF7C9FE0446104B1B68E7
:1006DC009A0107D5002018E0FFF7C0FE801B022806
:1006EC00CAD9F2E6FFF7BAFE001B0228EED9ECE6F7
:1006FC00FFF7B4FE0446064B1B689B01EAD5FFF7D7
:10070C00ADFE001B0228F6D9DFE603B0F0BD00BF3A
:10071C00003802400238024000004742800E474237
:10072C0000700040703802406000474210B51C4C0D
:10073C00A36803F00C03042B2ED0082B2ED1626877
:10074C0002F03F03626847F6C07112F4800F6268D2
:10075C0091FAA1F147F6C07000EA020008BF114AF5
:10076C00B1FA81F120FA01F00EBFB2FBF3F20E499F
:10077C00B1FBF3F202FB00F3094A50684FF440322C
:10078C0092FAA2F200F44030B2FA82F2D040013078
:10079C004000B3FBF0F010BD034810BD014810BD84
:1007AC00003802400024F40000127A00584B1A68FA
:1007BC0002F00F02914270B504460D460AD821682A
:1007CC00880710D55348836823F0F002A3681343BD
:1007DC00836008E0CAB21A701B6803F00F038B42E7
:1007EC00EDD0012070BDC90706D4494B1A6802F040
:1007FC000F0295425AD360E06368464A012B03D13D
:10080C00126812F4003F08E0991E0129126802D800
:10081C0012F0007F01E012F0020FE2D03D498A682D
:10082C0022F0030213438B60FFF718FE6368012B61
:10083C0006460ED1374B9B6803F00C03042BD4D027
:10084C00FFF70CFE41F28833801B9842F2D903204B
:10085C0070BD022B0DD12F4B9B6803F00C03082BA2
:10086C00C3D0FFF7FBFD41F28833801B9842F2D9CD
:10087C00EDE7032B14D1274B9B6803F00C030C2BD7
:10088C00B3D0FFF7EBFD41F28833801B9842F2D9CD
:10089C00DDE7FFF7E3FD41F28833801B9842D6D8A1
:1008AC001C4B9B6813F00C0FF3D19EE7EAB21A7045
:1008BC001B6803F00F03AB4293D121684A0706D59E
:1008CC001448836823F4E052E368134383600B07F6
:1008DC0041BF104A2169936823F4604344BF43EA43
:1008EC00C1039360FFF722FF0A4BF0229B6892FA38
:1008FC00A2F203F0F003B2FA82F2D340064AD35CC0
:10090C00D840064B18600F20FFF772FD002070BD19
:10091C00003C024000380240AC0E000828040020C5
:10092C00074AD36823F4E0631B041B0C43F0BF633A
:10093C0043F4003300F0070043EA0023D360704710
:10094C0000ED00E0154BDB68C3F3022370B5C3F177
:10095C0007051C1D042D28BF0425062C8CBF033B4A
:10096C000023012404FA03F6AC40013C013E214073
:10097C0099403240002842EA01024FEA0212AFBF0E
:10098C0000F1604000F00F00054BD2B2A5BF00F59E
:10099C006140D2B21A5480F8002370BD00ED00E023
:1009AC0014ED00E04109012300F01F00024A8340CE
:1009BC0042F82130704700BF00E100E00138B0F18F
:1009CC00807F3FBF064B074A5860F0213FBF82F83B
:1009DC00231000200722986034BF1A600120704752
:1009EC0010E000E000ED00E02DE9F3410F6800227B
:1009FC000123934003EA07059D4240F0D8804C68E0
:100A0C0024F0100CBCF1020F14D14FEAD20E00EB03
:100A1C008E0E02F00706DEF82030B6004FF00F08FD
:100A2C0008FA06F823EA08080B69B34048EA0303FE
:100A3C00CEF820304FEA420E0323066803FA0EF379
:100A4C00DB4303EA060804F0030606FA0EF60CF183
:100A5C00FF3C48EA0606BCF1010F066011D8866817
:100A6C0003EA060CCE6806FA0EF64CEA0606866019
:100A7C00466826EA050CC4F3001696404CEA0606B6
:100A8C004660C66803EA060C8B6803FA0EF64CEA5D
:100A9C000603C360E30040F18A80484E00230193B3
:100AAC00D6F844E04EF4804EC6F844E0766C06F47A
:100ABC0080460196019E22F0030606F1804606F55B
:100ACC009C3602F0030CD6F808804FEA8C0C4FF0E1
:100ADC000F0E0EFA0CFE28EA0E0EDFF8E8804045E9
:100AEC0037D003F1804303F50133984222D003F54C
:100AFC008063984220D003F5806398421ED003F5A2
:100B0C00806398421CD003F5806398421AD003F599
:100B1C008063984218D003F58063984216D003F591
:100B2C008063984214D003F5806398420CBF09236C
:100B3C000A230EE001230CE002230AE0032308E061
:100B4C00042306E0052304E0062302E0072300E06B
:100B5C00082303FA0CF343EA0E03DFF864E0B360F6
:100B6C00DEF80030EE4314F4803F14BF2B433340C7
:100B7C00CEF80030DEF80430DFF844E014F4003F27
:100B8C0014BF2B433340CEF80430DEF8083014F495
:100B9C00801F14BF2B433340CEF80830DEF80C30E6
:100BAC00A40254BF06EA03051D43054BDD60013268
:100BBC00102A7FF41DAF02B0BDE8F081003802406E
:100BCC00003C01400000024002B9090481617047F9
:100BDC00436959404161704708B5044B5969084253
:100BEC0002D0586100F0C4F808BD00BF003C0140C1
:100BFC0013B500230193224B1A6C42F080521A64F5
:100C0C001B6C03F080530193019B4FF4803393FAD8
:100C1C00A3F3B3FA83F303F1845303F560339B001E
:100C2C0001221A60FFF71AFC0446164B5B68DA03C4
:100C3C0007D4FFF713FC001BB0F57A7FF5D903201E
:100C4C001BE04FF4003393FAA3F3B3FA83F303F1ED
:100C5C00845303F560339B0001221A60FFF7FEFBFF
:100C6C000446084B5B689B0306D4FFF7F7FB001B9D
:100C7C00B0F57A7FF5D9E2E7002002B010BD00BFD5
:100C8C00003802400070004080B594B0FFF7C4FB00
:100C9C00002000F073F8012000F070F8304C0022B6
:100CAC000192236C43F080532364236C03F0805334
:100CBC000193019B2B4B02921A6842F440421A603A
:100CCC001B6803F440430293029B4FF480030F9381
:100CDC00082310934FF4B47301250227119308A82D
:100CEC000723089509950E9712971393FFF7BCFBF2
:100CFC00064618B1284600F07DF8FEE7FFF778FFAE
:100D0C000F2303934FF4A053069303A84FF480537F
:100D1C000521059604970793FFF748FD064618B181
:100D2C00284600F067F8FEE70390236B43F00103BD
:100D3C002363236B0A9003F001030393039B0A487C
:100D4C000A4B099308A90895FFF74EFE0620394671
:100D5C003246FFF7F7FD0620FFF724FEFEE700BF43
:100D6C0000380240007000400000024000002110DA
:100D7C00012802D1002000F04BB8704770B5044632
:100D8C0088B058B9184B01901A6B42F040021A63A4
:100D9C001B6B03F040030193019B0DE001280BD169
:100DAC0000230293104B1A6B42F040021A631B6B28
:100DBC0003F040030293029B0C4B0D4E33F814507E
:100DCC0056F82400039501230493059303A90223E9
:100DDC000693FFF709FE56F8240029460022FFF778
:100DEC00F3FE08B070BD00BF00380240BC0E000816
:100DFC002C040020044A034652F82000034A32F81F
:100E0C0013100122FFF7E0BE2C040020BC0E0008DA
:100E1C00044A034652F82000034A32F81310FFF735
:100E2C00D7BE00BF2C040020BC0E0008DFF834D065
:100E3C00002103E00C4B5B58435004310B480C4B26
:100E4C0042189A42F6D30B4A02E0002342F8043BC4
:100E5C00094B9A42F9D3FFF7A3FAFFF70FFAFFF702
:100E6C0013FF704700000320CC0E00080000002088
:100E7C00340400203404002054040020FEE7000059
:100E8C00F8B500BFF8BC08BC9E467047F8B500BF6B
:080E9C00F8BC08BC9E4670473B
:100EA40043000000000000200000000001020304D1
:0C0EB400010203040607080900200040AA
:080EC0007D030008190200087F
:040EC800F10100082C
:100ECC0000000000EC02002054030020BC030020B2
:100EDC000000000000000000000000000000000006
:100EEC0000000000000000000000000000000000F6
:100EFC0000000000A40E000800000000000000002C
:100F0C0000000000000000000000000000000000D5
:100F1C0000000000000000000000000000000000C5
:100F2C0000000000000000000000000000000000B5
:100F3C0000000000000000000000000000000000A5
:100F4C000000000000000000000000000000000095
:100F5C000000000000000000000000000000000085
:100F6C000000000000000000010000000000000074
:100F7C000E33CDAB34126DE6ECDE05000B00000039
:100F8C000000000000000000000000000000000055
:100F9C000000000000000000000000000000000045
:100FAC000000000000000000000000000000000035
:100FBC000000000000000000000000000000000025
:1012EC0000000000000000000024F4000018024080
:0412FC000018024094
:0400000508000E39A8
:00000001FF
