:020000040800F2
:1000000000000320FD06000851020008530200080A
:1000100055020008570200085902000800000000BD
:100020000000000000000000000000005B0200086B
:100030005D020008000000005F0200086102000885
:100040004D0700084D0700084D0700084D07000840
:100050004D0700084D0700084D0700084D07000830
:100060004D0700084D0700084D0700084D07000820
:100070004D0700084D0700084D0700084D07000810
:100080004D0700084D0700084D0700084D07000800
:100090004D0700084D0700084D0700084D070008F0
:1000A0004D0700084D0700084D0700084D070008E0
:1000B0004D0700084D0700084D0700084D070008D0
:1000C0004D0700084D0700084D0700084D070008C0
:1000D0004D0700084D0700084D0700084D070008B0
:1000E0004D0700084D0700084D0700084D070008A0
:1000F0004D0700084D0700084D0700084D07000890
:100100004D0700084D0700084D0700084D0700087F
:100110004D0700084D0700084D0700084D0700086F
:100120004D0700084D0700084D0700084D0700085F
:100130004D0700084D0700084D0700084D0700084F
:100140004D0700084D0700084D0700084D0700083F
:100150004D0700084D0700084D0700084D0700082F
:100160004D0700084D0700084D0700084D0700081F
:100170004D0700084D0700084D070008000000006B
:100180004D0700084D0700084D0700084D070008FF
:100190004D0700084D0700084D0700084D070008EF
:0C01A0004D0700084D0700084D0700083F
:1001AC00044B05481B1A062B02D9044B03B1184704
:1001BC00704700BF3B040020380400200000000002
:1001CC0005490648091A891001EBD171491002D072
:1001DC00034B03B118477047380400203804002043
:1001EC000000000010B5064C237843B9FFF7D8FF88
:1001FC00044B13B10448AFF300800123237010BDEE
:10020C0038040020000000009008000808B5084BD6
:10021C001BB108480849AFF300800848036813B9BC
:10022C00BDE80840CCE7064B002BF9D09847F7E720
:10023C0000000000900800083C0400203804002056
:10024C00000000007047FEE7FEE7FEE7FEE77047A0
:10025C007047704700F030B87047000010B5084B7D
:10026C00044618684FF47A73B0FBF3F000F07AF997
:10027C004FF0FF302146002200F044F9002010BD61
:10028C000000002008B50B4B1A6842F400721A608B
:10029C001A6842F480621A601A6842F480721A601A
:1002AC00032000F01DF90F20FFF7D8FFFFF7D4FF54
:1002BC00002008BD003C0240024A13680133136061
:1002CC00704700BF54040020014B1868704700BFF2
:1002DC005404002013B50190FFF7F6FF0446FFF716
:1002EC00F3FF019B001B9842F9D302B010BD000034
:1002FC002DE9F3410F6800220123934003EA07051F
:10030C009D4240F0D8804C6824F0100CBCF1020FD8
:10031C0014D14FEAD20E00EB8E0E02F00706DEF877
:10032C002030B6004FF00F0808FA06F823EA080848
:10033C000B69B34048EA0303CEF820304FEA420E73
:10034C000323066803FA0EF3DB4303EA060804F002
:10035C00030606FA0EF60CF1FF3C48EA0606BCF161
:10036C00010F066011D8866803EA060CCE6806FAFF
:10037C000EF64CEA06068660466826EA050CC4F3BF
:10038C00001696404CEA06064660C66803EA060C60
:10039C008B6803FA0EF64CEA0603C360E30040F1E7
:1003AC008A80484E00230193D6F844E04EF4804EE8
:1003BC00C6F844E0766C06F480460196019E22F065
:1003CC00030606F1804606F59C3602F0030CD6F8BF
:1003DC0008804FEA8C0C4FF00F0E0EFA0CFE28EA38
:1003EC000E0EDFF8E880404537D003F1804303F56B
:1003FC000133984222D003F58063984220D003F554
:10040C00806398421ED003F5806398421CD003F59C
:10041C00806398421AD003F58063984218D003F594
:10042C008063984216D003F58063984214D003F58C
:10043C00806398420CBF09230A230EE001230CE0D1
:10044C0002230AE0032308E0042306E0052304E06A
:10045C00062302E0072300E0082303FA0CF343EA27
:10046C000E03DFF864E0B360DEF80030EE4314F402
:10047C00803F14BF2B433340CEF80030DEF80430FD
:10048C00DFF844E014F4003F14BF2B433340CEF8A4
:10049C000430DEF8083014F4801F14BF2B433340B3
:1004AC00CEF80830DEF80C30A40254BF06EA03057F
:1004BC001D43054BDD600132102A7FF41DAF02B0E5
:1004CC00BDE8F08100380240003C014000000240D1
:1004DC0002B9090481617047436959404161704711
:1004EC00074AD36823F4E0631B041B0C43F0BF637F
:1004FC0043F4003300F0070043EA0023D360704755
:10050C0000ED00E0154BDB68C3F3022370B5C3F1BB
:10051C0007051C1D042D28BF0425062C8CBF033B8E
:10052C000023012404FA03F6AC40013C013E2140B7
:10053C0099403240002842EA01024FEA0212AFBF52
:10054C0000F1604000F00F00054BD2B2A5BF00F5E2
:10055C006140D2B21A5480F8002370BD00ED00E067
:10056C0014ED00E00138B0F1807F3FBF064B074A25
:10057C005860F0213FBF82F82310002007229860BA
:10058C0034BF1A600120704710E000E000ED00E07D
:10059C000F49D1F8883043F47003C1F888300D4B03
:1005AC001A68002042F001021A6098601A6822F062
:1005BC00847222F480321A60074A5A601A6822F454
:1005CC0080221A60D8604FF000638B60704700BFC8
:1005DC0000ED00E0003802401030002408B5FFF7B1
:1005EC0051FE002000F01EF8012000F01BF8002442
:1005FC00E5B2284600F052F84FF4C870FFF76AFED7
:10060C000134284600F058F8042CF1D1002000F0F9
:10061C0061F8012000F05EF86420FFF75BFE013CFE
:10062C00F4D1E4E770B5044688B058B9184B019082
:10063C001A6B42F040021A631B6B03F040030193E8
:10064C00019B0DE001280BD100230293104B1A6B78
:10065C0042F040021A631B6B03F040030293029BAF
:10066C000C4B0D4E33F8145056F82400039501230F
:10067C000493059303A902230693FFF739FE56F85A
:10068C00240029460022FFF723FF08B070BD00BFED
:10069C0000380240A808000804000020044A034661
:1006AC0052F82000034A32F813100122FFF710BF52
:1006BC0004000020A8080008044A034652F8200051
:1006CC00034A32F813100022FFF702BF0400002087
:1006DC00A8080008044A034652F82000034A32F8DE
:1006EC001310FFF7F9BE00BF04000020A808000893
:1006FC00DFF834D0002103E00C4B5B58435004313D
:10070C000B480C4B42189A42F6D30B4A02E00023DA
:10071C0042F8043B094B9A42F9D3FFF739FF00F03A
:10072C002DF8FFF75BFF704700000320C00800089E
:10073C000000002038040020380400205804002059
:10074C00FEE70000014600200246034600F03EB8DA
:10075C0038B5084B084DED1AAC1018BFED1805D084
:10076C00013C55F8043D9847002CF9D1BDE83840C0
:10077C0000F08EB8BC080008C008000870B50F4E19
:10078C000F4D761BB61018BF002405D0013455F858
:10079C00043B9847A642F9D10A4E0B4D761B00F04C
:1007AC0071F8B61018BF002406D0013455F8043B7C
:1007BC009847A642F9D170BD70BD00BFB4080008BF
:1007CC00B4080008BC080008B40800082DE9F0477C
:1007DC00254C2568D5F848410646884692469946E8
:1007EC00CCB360681F2818DC431C7EB104EB800579
:1007FC000121C5F888A0D4F8887101FA00F21743DA
:10080C00022EC4F88871C5F808911ED002306360BE
:10081C0044F820800020BDE8F087144B03B34FF45C
:10082C00C870AFF300800446D0B1D5F8483100272A
:10083C0080E88800C5F8484138460123C4F888711F
:10084C00C4F88C71002EE1D0D0E7D4F88C110A4397
:10085C00C4F88C21DAE705F5A674C5F84841C0E761
:10086C004FF0FF30BDE8F087B00800080000000032
:10087C00024B13B10248FFF765BF70470000000040
:10088C005D070008F8B500BFF8BC08BC9E46704771
:0C089C00F8B500BFF8BC08BC9E467047D1
:0C08A80000200040430000001000002071
:0808B4007D080008190200088C
:0408BC00F10100083E
:1008C0000024F4000018024000180240000000005C
:1008D00000000000FC02002064030020CC03002084
:1008E0000000000000000000000000000000000008
:1008F00000000000000000000000000000000000F8
:1009000000000000AC08000800000000000000002B
:1009100000000000000000000000000000000000D7
:1009200000000000000000000000000000000000C7
:1009300000000000000000000000000000000000B7
:1009400000000000000000000000000000000000A7
:100950000000000000000000000000000000000097
:100960000000000000000000000000000000000087
:100970000000000000000000010000000000000076
:100980000E33CDAB34126DE6ECDE05000B0000003B
:100990000000000000000000000000000000000057
:1009A0000000000000000000000000000000000047
:1009B0000000000000000000000000000000000037
:1009C0000000000000000000000000000000000027
:04000005080006FDEC
:00000001FF
