:020000040800F2
:100000000000032091060008510200085302000876
:1000100055020008570200085902000800000000BD
:100020000000000000000000000000005B0200086B
:100030005D020008000000005F0200086102000885
:10004000E1060008E1060008E1060008E1060008F4
:10005000E1060008E1060008E1060008E1060008E4
:10006000E1060008E1060008E1060008E1060008D4
:10007000E1060008E1060008E1060008E1060008C4
:10008000E1060008E1060008E1060008E1060008B4
:10009000E1060008E1060008E1060008E1060008A4
:1000A000E1060008E1060008E1060008E106000894
:1000B000E1060008E1060008E1060008E106000884
:1000C000E1060008E1060008E1060008E106000874
:1000D000E1060008E1060008E1060008E106000864
:1000E000E1060008E1060008E1060008E106000854
:1000F000E1060008E1060008E1060008E106000844
:10010000E1060008E1060008E1060008E106000833
:10011000E1060008E1060008E1060008E106000823
:10012000E1060008E1060008E1060008E106000813
:10013000E1060008E1060008E1060008E106000803
:10014000E1060008E1060008E1060008E1060008F3
:10015000E1060008E1060008E1060008E1060008E3
:10016000E1060008E1060008E1060008E1060008D3
:10017000E1060008E1060008E106000800000000B2
:10018000E1060008E1060008E1060008E1060008B3
:10019000E1060008E1060008E1060008E1060008A3
:0C01A000E1060008E1060008E106000886
:1001AC00044B05481B1A062B02D9044B03B1184704
:1001BC00704700BF33040020300400200000000012
:1001CC0005490648091A891001EBD171491002D072
:1001DC00034B03B118477047300400203004002053
:1001EC000000000010B5064C237843B9FFF7D8FF88
:1001FC00044B13B10448AFF300800123237010BDEE
:10020C0030040020000000002408000808B5084B4A
:10021C001BB108480849AFF300800848036813B9BC
:10022C00BDE80840CCE7064B002BF9D09847F7E720
:10023C0000000000240800083404002030040020D2
:10024C00000000007047FEE7FEE7FEE7FEE77047A0
:10025C007047704700F030B87047000010B5084B7D
:10026C00044618684FF47A73B0FBF3F000F076F99B
:10027C004FF0FF302146002200F040F9002010BD65
:10028C000000002008B50B4B1A6842F400721A608B
:10029C001A6842F480621A601A6842F480721A601A
:1002AC00032000F019F90F20FFF7D8FFFFF7D4FF58
:1002BC00002008BD003C0240024A13680133136061
:1002CC00704700BF4C040020014B1868704700BFFA
:1002DC004C04002013B50190FFF7F6FF0446FFF71E
:1002EC00F3FF019B001B9842F9D302B010BD000034
:1002FC002DE9F3410F6800220123934003EA07051F
:10030C009D4240F0D8804C6824F0100CBCF1020FD8
:10031C0014D14FEAD20E00EB8E0E02F00706DEF877
:10032C002030B6004FF00F0808FA06F823EA080848
:10033C000B69B34048EA0303CEF820304FEA420E73
:10034C000323066803FA0EF3DB4303EA060804F002
:10035C00030606FA0EF60CF1FF3C48EA0606BCF161
:10036C00010F066011D8866803EA060CCE6806FAFF
:10037C000EF64CEA06068660466826EA050CC4F3BF
:10038C00001696404CEA06064660C66803EA060C60
:10039C008B6803FA0EF64CEA0603C360E30040F1E7
:1003AC008A80484E00230193D6F844E04EF4804EE8
:1003BC00C6F844E0766C06F480460196019E22F065
:1003CC00030606F1804606F59C3602F0030CD6F8BF
:1003DC0008804FEA8C0C4FF00F0E0EFA0CFE28EA38
:1003EC000E0EDFF8E880404537D003F1804303F56B
:1003FC000133984222D003F58063984220D003F554
:10040C00806398421ED003F5806398421CD003F59C
:10041C00806398421AD003F58063984218D003F594
:10042C008063984216D003F58063984214D003F58C
:10043C00806398420CBF09230A230EE001230CE0D1
:10044C0002230AE0032308E0042306E0052304E06A
:10045C00062302E0072300E0082303FA0CF343EA27
:10046C000E03DFF864E0B360DEF80030EE4314F402
:10047C00803F14BF2B433340CEF80030DEF80430FD
:10048C00DFF844E014F4003F14BF2B433340CEF8A4
:10049C000430DEF8083014F4801F14BF2B433340B3
:1004AC00CEF80830DEF80C30A40254BF06EA03057F
:1004BC001D43054BDD600132102A7FF41DAF02B0E5
:1004CC00BDE8F08100380240003C014000000240D1
:1004DC0002B9090481617047074AD36823F4E063C9
:1004EC001B041B0C43F0BF6343F4003300F0070004
:1004FC0043EA0023D360704700ED00E0154BDB6846
:10050C00C3F3022370B5C3F107051C1D042D28BFCE
:10051C000425062C8CBF033B0023012404FA03F6AC
:10052C00AC40013C013E214099403240002842EA57
:10053C0001024FEA0212AFBF00F1604000F00F0061
:10054C00054BD2B2A5BF00F56140D2B21A5480F867
:10055C00002370BD00ED00E014ED00E00138B0F1B7
:10056C00807F3FBF064B074A5860F0213FBF82F89F
:10057C00231000200722986034BF1A6001207047B6
:10058C0010E000E000ED00E00F49D1F8883043F4B2
:10059C007003C1F888300D4B1A68002042F001023C
:1005AC001A6098601A6822F0847222F480321A6001
:1005BC00074A5A601A6822F480221A60D8604FF0F9
:1005CC0000638B60704700BF00ED00E00038024014
:1005DC001030002407B5FFF755FE00230193264B7E
:1005EC0026491A6B264842F040021A631B6B03F033
:1005FC0040030193019B4FF4C0430B600222012383
:10060C004B60CA608B60FFF773FE4FF48041012290
:10061C001B48FFF75DFF4FF4C870FFF75BFE1848EF
:10062C004FF480410022FFF753FF4FF40051012299
:10063C001348FFF74DFF4FF4C870FFF74BFE1048FF
:10064C004FF400510022FFF743FF02244FF4C04146
:10065C0001220B48FFF73CFF6420FFF73BFE0848E4
:10066C004FF4C0410022FFF733FF6420FFF732FE46
:10067C00012CCAD00124E9E70038024050040020C4
:10068C0000180240DFF834D0002103E00C4B5B581B
:10069C00435004310B480C4B42189A42F6D30B4A88
:1006AC0002E0002342F8043B094B9A42F9D3FFF7CE
:1006BC006BFF00F02DF8FFF78DFF70470000032053
:1006CC0050080008000000203004002030040020F6
:1006DC0064040020FEE700000146002002460346A9
:1006EC0000F03EB838B5084B084DED1AAC1018BFE9
:1006FC00ED1805D0013C55F8043D9847002CF9D174
:10070C00BDE8384000F08EB84C08000850080008CE
:10071C0070B50F4E0F4D761BB61018BF002405D0C8
:10072C00013455F8043B9847A642F9D10A4E0B4DBB
:10073C00761B00F071F8B61018BF002406D00134F7
:10074C0055F8043B9847A642F9D170BD70BD00BF67
:10075C0044080008440800084C0800084408000835
:10076C002DE9F047254C2568D5F8484106468846C2
:10077C0092469946CCB360681F2818DC431C7EB1A6
:10078C0004EB80050121C5F888A0D4F8887101FA22
:10079C0000F21743022EC4F88871C5F808911ED0D8
:1007AC000230636044F820800020BDE8F087144BD1
:1007BC0003B34FF4C870AFF300800446D0B1D5F842
:1007CC004831002780E88800C5F8484138460123A5
:1007DC00C4F88871C4F88C71002EE1D0D0E7D4F83D
:1007EC008C110A43C4F88C21DAE705F5A674C5F818
:1007FC004841C0E74FF0FF30BDE8F08740080008E3
:10080C0000000000024B13B10248FFF765BF7047B0
:10081C0000000000F1060008F8B500BFF8BC08BCE9
:10082C009E467047F8B500BFF8BC08BC9E467047A2
:08083C00430000000800002049
:08084400110800081902000868
:04084C00F1010008AE
:100850000024F4000000000000000000F40200206A
:100860005C030020C4030020000000000000000022
:100870000000000000000000000000000000000078
:100880000000000000000000000000003C0800081C
:100890000000000000000000000000000000000058
:1008A0000000000000000000000000000000000048
:1008B0000000000000000000000000000000000038
:1008C0000000000000000000000000000000000028
:1008D0000000000000000000000000000000000018
:1008E0000000000000000000000000000000000008
:1008F00000000000000000000000000000000000F8
:1009000001000000000000000E33CDAB34126DE694
:10091000ECDE05000B0000000000000000000000FD
:1009200000000000000000000000000000000000C7
:1009300000000000000000000000000000000000B7
:1009400000000000000000000000000000000000A7
:100950000000000000000000000000000000000097
:040000050800069158
:00000001FF
