:020000040800F2
:10000000000003202D0800087D0800087D08000876
:100010007D0800087D0800087D0800080000000039
:100020000000000000000000000000007D08000843
:100030007D080008000000007D0800087D08000819
:100040007D0800087D0800087D0800087D0800087C
:100050007D0800087D080008A10700087D08000849
:100060007D0800087D0800087D0800087D0800085C
:100070007D0800087D0800087D0800087D0800084C
:100080007D0800087D0800087D0800087D0800083C
:100090007D0800087D0800087D0800087D0800082C
:1000A0007D0800087D0800087D0800087D0800081C
:1000B0007D0800087D0800087D0800087D0800080C
:1000C0007D0800087D0800087D0800087D080008FC
:1000D0007D0800087D0800087D0800087D080008EC
:1000E0007D0800087D0800087D0800087D080008DC
:1000F0007D0800087D0800087D0800087D080008CC
:100100007D0800087D0800087D0800087D080008BB
:100110007D0800087D0800087D0800087D080008AB
:100120007D0800087D0800087D0800087D0800089B
:100130007D0800087D0800087D0800087D0800088B
:100140007D0800087D0800087D0800087D0800087B
:100150007D0800087D0800087D0800087D0800086B
:100160007D0800087D0800087D0800087D0800085B
:100170007D0800087D0800087D08000800000000D8
:100180007D0800087D0800087D0800087D0800083B
:100190007D0800087D0800087D0800087D0800082B
:0C01A0007D0800087D0800087D080008AC
:1001AC00044B05481B1A062B02D9044B03B1184704
:1001BC00704700BF2B040020280400200000000022
:1001CC0005490648091A891001EBD171491002D072
:1001DC00034B03B118477047280400202804002063
:1001EC000000000010B5064C237843B9FFF7D8FF88
:1001FC00044B13B10448AFF300800123237010BDEE
:10020C0028040020000000008008000808B5084BF6
:10021C001BB108480849AFF300800848036813B9BC
:10022C00BDE80840CCE7064B002BF9D09847F7E720
:10023C0000000000800800082C0400202804002086
:10024C0000000000014600200246034600F03EB8C4
:10025C0038B5084B084DED1AAC1018BFED1805D089
:10026C00013C55F8043D9847002CF9D1BDE83840C5
:10027C0000F006BBA8080008AC08000870B50F4ECB
:10028C000F4D761BB61018BF002405D0013455F85D
:10029C00043B9847A642F9D10A4E0B4D761B00F051
:1002AC00E9FAB61018BF002406D0013455F8043B07
:1002BC009847A642F9D170BD70BD00BFA0080008D8
:1002CC00A0080008A8080008A00800082DE9F047BD
:1002DC00254C2568D5F848410646884692469946ED
:1002EC00CCB360681F2818DC431C7EB104EB80057E
:1002FC000121C5F888A0D4F8887101FA00F21743DF
:10030C00022EC4F88871C5F808911ED002306360C3
:10031C0044F820800020BDE8F087144B03B34FF461
:10032C00C870AFF300800446D0B1D5F8483100272F
:10033C0080E88800C5F8484138460123C4F8887124
:10034C00C4F88C71002EE1D0D0E7D4F88C110A439C
:10035C00C4F88C21DAE705F5A674C5F84841C0E766
:10036C004FF0FF30BDE8F0879C080008000000004B
:10037C00024B13B10248FFF765BF70470000000045
:10038C005D02000880B483B000AF0346FB710849DE
:10039C0097F907305B09FA7902F01F02012000FA85
:1003AC0002F241F823200C37BD465DF8047B704700
:1003BC0000E100E080B485B000AFF8600B467A60D5
:1003CC007B81FB681A687B895B00796801FA03F30F
:1003DC001A43FB681A601437BD465DF8047B7047FE
:1003EC0080B485B000AFF8600B467A607B81FB6807
:1003FC009A687B895B00796801FA03F31A43FB68FE
:10040C009A601437BD465DF8047B704780B485B0A4
:10041C0000AFF8600B467A607B81FB685A687B8979
:10042C00796801FA03F31A43FB685A601437BD4626
:10043C005DF8047B704700BF80B485B000AFF860F6
:10044C000B467A607B81FB68DA687B895B00796894
:10045C0001FA03F31A43FB68DA601437BD465DF802
:10046C00047B704780B582B000AF786039603B6820
:10047C001B689AB23B685B68786811461A46FFF7AE
:10048C0099FF3B681B689AB23B681B6978681146F8
:10049C001A46FFF7A5FF3B681B689AB23B689B683E
:1004AC00786811461A46FFF7B1FF3B681B689AB291
:1004BC003B68DB68786811461A46FFF7BDFF0837C2
:1004CC00BD4680BD80B483B000AF78600B467B80A6
:1004DC0013467B707B78002B09D07B685B697A882C
:1004EC00012101FA02F21A437B685A6109E07B6828
:1004FC005B697A88012101FA02F2D2431A407B68C7
:10050C005A610C37BD465DF8047B704780B485B0EA
:10051C0000AF78600B467B807B681A697B8822FA77
:10052C0003F3DBB203F00103FB73FB7B18461437B8
:10053C00BD465DF8047B704780B483B000AF0346C2
:10054C000A46FB8013467B717B79002B09D1184935
:10055C00174B9B68FA88012000FA02F213438B6058
:10056C0021E07B79012B09D11149114BDB68FA8809
:10057C00012000FA02F21343CB6014E07B79022BCA
:10058C0011D10B490A4BDB68FA88012000FA02F200
:10059C001343CB600649064B9B68FA88012000FA8E
:1005AC0002F213438B600C37BD465DF8047B704739
:1005BC00003C014080B582B000AF03460A46FB8088
:1005CC0013467B710849084B1B68FA88012000FA16
:1005DC0002F213430B6097F905301846FFF7D2FE71
:1005EC000837BD4680BD00BF003C014080B483B0DD
:1005FC0000AF0346FB800B4B5B69FA88012101FAC3
:10060C0002F21340002B08D00649064B5B69FA88AE
:10061C00012000FA02F213434B610C37BD465DF822
:10062C00047B7047003C014080B586B000AF0F4A98
:10063C000E4B1B6B43F0400313630D233B600123F4
:10064C007B600023BB6001233B610023FB603B46C6
:10065C0007481946FFF706FF0E233B603B4604484C
:10066C001946FFF7FFFE1837BD4680BD0038024023
:10067C000018024080B582B000AF78600B467B80DA
:10068C007B88786819460122FFF71CFF0837BD46A6
:10069C0080BD00BF80B582B000AF78600B467B8018
:1006AC007B88786819460022FFF70CFF0837BD4697
:1006BC0080BD00BF80B582B000AF78600B467B80F8
:1006CC007B8878681946FFF721FF0346002B06D07C
:1006DC007B88786819460022FFF7F4FE05E07B88DA
:1006EC00786819460122FFF7EDFE0837BD4680BD3C
:1006FC0080B582B000AFFFF797FF224A214B1B6BEE
:10070C0043F001031363204A1F4B1B6823F00303C0
:10071C0013601D4A1C4BDB6823F00303D360194A9A
:10072C00184B5B6C43F48043536400200221FFF7A9
:10073C0003FF00200621FFF73DFF14480D21FFF7B2
:10074C0099FF12480E21FFF795FF00237B6002E012
:10075C007B6801337B607B680D4A9342F8D90B4868
:10076C000D21FFF797FF09480E21FFF793FF002398
:10077C007B6002E07B6801337B607B68044A9342B8
:10078C00F8D9DAE7003802400000024000180240B5
:10079C001FA1070080B500AF0020FFF727FF04481A
:1007AC000E21FFF787FF02480D21FFF783FF80BD65
:1007BC000018024080B400AF164A164BD3F88830AC
:1007CC0043F47003C2F88830134A134B1B6843F090
:1007DC0001031360104B00229A600F4A0E4B1B68EA
:1007EC0023F0847323F4803313600B4B0B4A5A6051
:1007FC00094A094B1B6823F480231360064B002223
:10080C00DA60044B4FF000629A60BD465DF8047BE1
:10081C00704700BF00ED00E00038024010300024AB
:10082C00DFF834D0002103E00C4B5B58435004310B
:10083C000B480C4B42189A42F6D30B4A02E00023A9
:10084C0042F8043B094B9A42F9D3FFF7B3FFFFF789
:10085C0015FDFFF74DFF704700000320AC080008A2
:10086C00000000202804002028040020440400205C
:10087C00FEE70000F8B500BFF8BC08BC9E46704708
:0C088C00F8B500BFF8BC08BC9E467047E1
:080898004300000000000020F5
:0808A0007D03000819020008A5
:0408A800F101000852
:1008AC0000000000EC02002054030020BC030020D8
:1008BC00000000000000000000000000000000002C
:1008CC00000000000000000000000000000000001C
:1008DC000000000098080008000000000000000064
:1008EC0000000000000000000000000000000000FC
:1008FC0000000000000000000000000000000000EC
:10090C0000000000000000000000000000000000DB
:10091C0000000000000000000000000000000000CB
:10092C0000000000000000000000000000000000BB
:10093C0000000000000000000000000000000000AB
:10094C00000000000000000001000000000000009A
:10095C000E33CDAB34126DE6ECDE05000B0000005F
:10096C00000000000000000000000000000000007B
:10097C00000000000000000000000000000000006B
:10098C00000000000000000000000000000000005B
:10099C00000000000000000000000000000000004B
:040000050800082DBA
:00000001FF
